{
  "_format": "hh-sol-artifact-1",
  "contractName": "Raffle",
  "sourceName": "contracts/Raffle.sol",
  "abi": [
    {
      "inputs": [
        {
          "internalType": "address",
          "name": "vrfCoordinatorV2",
          "type": "address"
        },
        {
          "internalType": "uint256",
          "name": "entranceFee",
          "type": "uint256"
        },
        {
          "internalType": "bytes32",
          "name": "gasLane",
          "type": "bytes32"
        },
        {
          "internalType": "uint64",
          "name": "subscriptionId",
          "type": "uint64"
        },
        {
          "internalType": "uint32",
          "name": "callbackGasLimit",
          "type": "uint32"
        },
        {
          "internalType": "uint256",
          "name": "interval",
          "type": "uint256"
        }
      ],
      "stateMutability": "nonpayable",
      "type": "constructor"
    },
    {
      "inputs": [
        {
          "internalType": "address",
          "name": "have",
          "type": "address"
        },
        {
          "internalType": "address",
          "name": "want",
          "type": "address"
        }
      ],
      "name": "OnlyCoordinatorCanFulfill",
      "type": "error"
    },
    {
      "inputs": [],
      "name": "Raffle__NotEnoughETHEntered",
      "type": "error"
    },
    {
      "inputs": [],
      "name": "Raffle__NotOpen",
      "type": "error"
    },
    {
      "inputs": [],
      "name": "Raffle__TransferFailed",
      "type": "error"
    },
    {
      "anonymous": false,
      "inputs": [
        {
          "indexed": true,
          "internalType": "address",
          "name": "player",
          "type": "address"
        }
      ],
      "name": "RaffleEnter",
      "type": "event"
    },
    {
      "anonymous": false,
      "inputs": [
        {
          "indexed": true,
          "internalType": "uint256",
          "name": "requestId",
          "type": "uint256"
        }
      ],
      "name": "RequestedRaffleWinner",
      "type": "event"
    },
    {
      "anonymous": false,
      "inputs": [
        {
          "indexed": true,
          "internalType": "address",
          "name": "winner",
          "type": "address"
        }
      ],
      "name": "WinnerPicked",
      "type": "event"
    },
    {
      "inputs": [
        {
          "internalType": "bytes",
          "name": "",
          "type": "bytes"
        }
      ],
      "name": "checkUpkeep",
      "outputs": [
        {
          "internalType": "bool",
          "name": "upkeepNeeded",
          "type": "bool"
        },
        {
          "internalType": "bytes",
          "name": "",
          "type": "bytes"
        }
      ],
      "stateMutability": "nonpayable",
      "type": "function"
    },
    {
      "inputs": [],
      "name": "enterRaffle",
      "outputs": [],
      "stateMutability": "payable",
      "type": "function"
    },
    {
      "inputs": [],
      "name": "getEntranceFee",
      "outputs": [
        {
          "internalType": "uint256",
          "name": "",
          "type": "uint256"
        }
      ],
      "stateMutability": "view",
      "type": "function"
    },
    {
      "inputs": [],
      "name": "getInterval",
      "outputs": [
        {
          "internalType": "uint256",
          "name": "",
          "type": "uint256"
        }
      ],
      "stateMutability": "view",
      "type": "function"
    },
    {
      "inputs": [],
      "name": "getLatestTimeStamp",
      "outputs": [
        {
          "internalType": "uint256",
          "name": "",
          "type": "uint256"
        }
      ],
      "stateMutability": "view",
      "type": "function"
    },
    {
      "inputs": [],
      "name": "getNumWords",
      "outputs": [
        {
          "internalType": "uint256",
          "name": "",
          "type": "uint256"
        }
      ],
      "stateMutability": "pure",
      "type": "function"
    },
    {
      "inputs": [],
      "name": "getNumberOfPlayers",
      "outputs": [
        {
          "internalType": "uint256",
          "name": "",
          "type": "uint256"
        }
      ],
      "stateMutability": "view",
      "type": "function"
    },
    {
      "inputs": [
        {
          "internalType": "uint256",
          "name": "index",
          "type": "uint256"
        }
      ],
      "name": "getPlayer",
      "outputs": [
        {
          "internalType": "address",
          "name": "",
          "type": "address"
        }
      ],
      "stateMutability": "view",
      "type": "function"
    },
    {
      "inputs": [],
      "name": "getRaffleState",
      "outputs": [
        {
          "internalType": "enum Raffle.RaffleState",
          "name": "",
          "type": "uint8"
        }
      ],
      "stateMutability": "view",
      "type": "function"
    },
    {
      "inputs": [],
      "name": "getRecentWinner",
      "outputs": [
        {
          "internalType": "address",
          "name": "",
          "type": "address"
        }
      ],
      "stateMutability": "view",
      "type": "function"
    },
    {
      "inputs": [],
      "name": "getRequestConfirmations",
      "outputs": [
        {
          "internalType": "uint256",
          "name": "",
          "type": "uint256"
        }
      ],
      "stateMutability": "pure",
      "type": "function"
    },
    {
      "inputs": [
        {
          "internalType": "bytes",
          "name": "",
          "type": "bytes"
        }
      ],
      "name": "performUpkeep",
      "outputs": [],
      "stateMutability": "nonpayable",
      "type": "function"
    },
    {
      "inputs": [
        {
          "internalType": "uint256",
          "name": "requestId",
          "type": "uint256"
        },
        {
          "internalType": "uint256[]",
          "name": "randomWords",
          "type": "uint256[]"
        }
      ],
      "name": "rawFulfillRandomWords",
      "outputs": [],
      "stateMutability": "nonpayable",
      "type": "function"
    }
  ],
  "bytecode": "0x6101606040523480156200001257600080fd5b5060405162001778380380620017788339818101604052810190620000389190620001ad565b858073ffffffffffffffffffffffffffffffffffffffff1660808173ffffffffffffffffffffffffffffffffffffffff1660601b81525050508573ffffffffffffffffffffffffffffffffffffffff1660c08173ffffffffffffffffffffffffffffffffffffffff1660601b815250508460a081815250508360e081815250508267ffffffffffffffff166101008167ffffffffffffffff1660c01b815250508163ffffffff166101208163ffffffff1660e01b815250508061014081815250506000600160146101000a81548160ff02191690836001811115620001225762000121620002b5565b5b0217905550426002819055505050505050506200036b565b6000815190506200014b81620002e9565b92915050565b600081519050620001628162000303565b92915050565b60008151905062000179816200031d565b92915050565b600081519050620001908162000337565b92915050565b600081519050620001a78162000351565b92915050565b60008060008060008060c08789031215620001cd57620001cc620002e4565b5b6000620001dd89828a016200013a565b9650506020620001f089828a0162000168565b95505060406200020389828a0162000151565b94505060606200021689828a0162000196565b93505060806200022989828a016200017f565b92505060a06200023c89828a0162000168565b9150509295509295509295565b6000620002568262000267565b9050919050565b6000819050919050565b600073ffffffffffffffffffffffffffffffffffffffff82169050919050565b6000819050919050565b600063ffffffff82169050919050565b600067ffffffffffffffff82169050919050565b7f4e487b7100000000000000000000000000000000000000000000000000000000600052602160045260246000fd5b600080fd5b620002f48162000249565b81146200030057600080fd5b50565b6200030e816200025d565b81146200031a57600080fd5b50565b620003288162000287565b81146200033457600080fd5b50565b620003428162000291565b81146200034e57600080fd5b50565b6200035c81620002a1565b81146200036857600080fd5b50565b60805160601c60a05160c05160601c60e0516101005160c01c6101205160e01c61014051611391620003e76000396000818161076c01526107da0152600061061c015260006105f9015260006105d80152600061059c0152600081816102fa01526103f7015260008181610337015261038b01526113916000f3fe6080604052600436106100c25760003560e01c8063473f1ddc1161007f5780636e04ff0d116100595780636e04ff0d1461022557806391ad27b414610263578063e55ae4e81461028e578063fd6673f5146102cb576100c2565b8063473f1ddc146101a457806353a2c19a146101cf5780635f1b0fd8146101fa576100c2565b806309bc33a7146100c7578063115cbaf5146100f25780631fe543e31461011d5780632cfcc53914610146578063320229eb146101505780634585e33b1461017b575b600080fd5b3480156100d357600080fd5b506100dc6102f6565b6040516100e99190610fce565b60405180910390f35b3480156100fe57600080fd5b5061010761031e565b6040516101149190610fb3565b60405180910390f35b34801561012957600080fd5b50610144600480360381019061013f9190610da7565b610335565b005b61014e6103f5565b005b34801561015c57600080fd5b50610165610564565b6040516101729190610fce565b60405180910390f35b34801561018757600080fd5b506101a2600480360381019061019d9190610cb7565b61056e565b005b3480156101b057600080fd5b506101b96106e3565b6040516101c69190610eec565b60405180910390f35b3480156101db57600080fd5b506101e461070d565b6040516101f19190610fce565b60405180910390f35b34801561020657600080fd5b5061020f61071c565b60405161021c9190610fce565b60405180910390f35b34801561023157600080fd5b5061024c60048036038101906102479190610d04565b610729565b60405161025a929190610f30565b60405180910390f35b34801561026f57600080fd5b506102786107d6565b6040516102859190610fce565b60405180910390f35b34801561029a57600080fd5b506102b560048036038101906102b09190610d4d565b6107fe565b6040516102c29190610eec565b60405180910390f35b3480156102d757600080fd5b506102e0610845565b6040516102ed9190610fce565b60405180910390f35b60007f0000000000000000000000000000000000000000000000000000000000000000905090565b6000600160149054906101000a900460ff16905090565b7f000000000000000000000000000000000000000000000000000000000000000073ffffffffffffffffffffffffffffffffffffffff163373ffffffffffffffffffffffffffffffffffffffff16146103e757337f00000000000000000000000000000000000000000000000000000000000000006040517f1cf993f40000000000000000000000000000000000000000000000000000000081526004016103de929190610f07565b60405180910390fd5b6103f18282610851565b5050565b7f000000000000000000000000000000000000000000000000000000000000000034101561044f576040517fbd4e069500000000000000000000000000000000000000000000000000000000815260040160405180910390fd5b6000600181111561046357610462611271565b5b600160149054906101000a900460ff16600181111561048557610484611271565b5b146104bc576040517f1425571c00000000000000000000000000000000000000000000000000000000815260040160405180910390fd5b6000339080600181540180825580915050600190039060005260206000200160009091909190916101000a81548173ffffffffffffffffffffffffffffffffffffffff021916908373ffffffffffffffffffffffffffffffffffffffff1602179055503373ffffffffffffffffffffffffffffffffffffffff167f0805e1d667bddb8a95f0f09880cf94f403fb596ce79928d9f29b74203ba284d460405160405180910390a2565b6000600254905090565b60018060146101000a81548160ff0219169083600181111561059357610592611271565b5b021790555060007f000000000000000000000000000000000000000000000000000000000000000073ffffffffffffffffffffffffffffffffffffffff16635d3b1d307f00000000000000000000000000000000000000000000000000000000000000007f000000000000000000000000000000000000000000000000000000000000000060037f000000000000000000000000000000000000000000000000000000000000000060016040518663ffffffff1660e01b815260040161065d959493929190610f60565b602060405180830381600087803b15801561067757600080fd5b505af115801561068b573d6000803e3d6000fd5b505050506040513d601f19601f820116820180604052508101906106af9190610d7a565b9050807fcd6e45c8998311cab7e9d4385596cac867e20a0587194b954fa3a731c93ce78b60405160405180910390a2505050565b6000600160009054906101000a900473ffffffffffffffffffffffffffffffffffffffff16905090565b6000600163ffffffff16905090565b6000600361ffff16905090565b600060606000600160149054906101000a900460ff16600181111561075157610750611271565b5b6000600181111561076557610764611271565b5b14905060007f0000000000000000000000000000000000000000000000000000000000000000600254426107999190611092565b119050600080600080549050119050600080471190508380156107b95750825b80156107c25750815b80156107cb5750805b955050505050915091565b60007f0000000000000000000000000000000000000000000000000000000000000000905090565b6000808281548110610813576108126112a0565b5b9060005260206000200160009054906101000a900473ffffffffffffffffffffffffffffffffffffffff169050919050565b60008080549050905090565b600080805490508260008151811061086c5761086b6112a0565b5b602002602001015161087e91906111e2565b90506000808281548110610895576108946112a0565b5b9060005260206000200160009054906101000a900473ffffffffffffffffffffffffffffffffffffffff16905080600160006101000a81548173ffffffffffffffffffffffffffffffffffffffff021916908373ffffffffffffffffffffffffffffffffffffffff1602179055506000600160146101000a81548160ff0219169083600181111561092957610928611271565b5b0217905550600067ffffffffffffffff811115610949576109486112cf565b5b6040519080825280602002602001820160405280156109775781602001602082028036833780820191505090505b506000908051906020019061098d929190610a82565b504260028190555060008173ffffffffffffffffffffffffffffffffffffffff16476040516109bb90610ed7565b60006040518083038185875af1925050503d80600081146109f8576040519150601f19603f3d011682016040523d82523d6000602084013e6109fd565b606091505b5050905080610a38576040517fa1d04b3900000000000000000000000000000000000000000000000000000000815260040160405180910390fd5b8173ffffffffffffffffffffffffffffffffffffffff167f5b690ec4a06fe979403046eaeea5b3ce38524683c3001f662c8b5a829632f7df60405160405180910390a25050505050565b828054828255906000526020600020908101928215610afb579160200282015b82811115610afa5782518260006101000a81548173ffffffffffffffffffffffffffffffffffffffff021916908373ffffffffffffffffffffffffffffffffffffffff16021790555091602001919060010190610aa2565b5b509050610b089190610b0c565b5090565b5b80821115610b25576000816000905550600101610b0d565b5090565b6000610b3c610b378461100e565b610fe9565b90508083825260208201905082856020860282011115610b5f57610b5e611308565b5b60005b85811015610b8f5781610b758882610c8d565b845260208401935060208301925050600181019050610b62565b5050509392505050565b6000610bac610ba78461103a565b610fe9565b905082815260208101848484011115610bc857610bc761130d565b5b610bd384828561116f565b509392505050565b600082601f830112610bf057610bef611303565b5b8135610c00848260208601610b29565b91505092915050565b60008083601f840112610c1f57610c1e611303565b5b8235905067ffffffffffffffff811115610c3c57610c3b6112fe565b5b602083019150836001820283011115610c5857610c57611308565b5b9250929050565b600082601f830112610c7457610c73611303565b5b8135610c84848260208601610b99565b91505092915050565b600081359050610c9c81611344565b92915050565b600081519050610cb181611344565b92915050565b60008060208385031215610cce57610ccd611317565b5b600083013567ffffffffffffffff811115610cec57610ceb611312565b5b610cf885828601610c09565b92509250509250929050565b600060208284031215610d1a57610d19611317565b5b600082013567ffffffffffffffff811115610d3857610d37611312565b5b610d4484828501610c5f565b91505092915050565b600060208284031215610d6357610d62611317565b5b6000610d7184828501610c8d565b91505092915050565b600060208284031215610d9057610d8f611317565b5b6000610d9e84828501610ca2565b91505092915050565b60008060408385031215610dbe57610dbd611317565b5b6000610dcc85828601610c8d565b925050602083013567ffffffffffffffff811115610ded57610dec611312565b5b610df985828601610bdb565b9150509250929050565b610e0c816110c6565b82525050565b610e1b816110d8565b82525050565b610e2a816110e4565b82525050565b6000610e3b8261106b565b610e458185611076565b9350610e5581856020860161117e565b610e5e8161131c565b840191505092915050565b610e728161115d565b82525050565b6000610e85600083611087565b9150610e908261132d565b600082019050919050565b610ea481611101565b82525050565b610eb38161112f565b82525050565b610ec281611139565b82525050565b610ed181611149565b82525050565b6000610ee282610e78565b9150819050919050565b6000602082019050610f016000830184610e03565b92915050565b6000604082019050610f1c6000830185610e03565b610f296020830184610e03565b9392505050565b6000604082019050610f456000830185610e12565b8181036020830152610f578184610e30565b90509392505050565b600060a082019050610f756000830188610e21565b610f826020830187610ec8565b610f8f6040830186610e9b565b610f9c6060830185610eb9565b610fa96080830184610eb9565b9695505050505050565b6000602082019050610fc86000830184610e69565b92915050565b6000602082019050610fe36000830184610eaa565b92915050565b6000610ff3611004565b9050610fff82826111b1565b919050565b6000604051905090565b600067ffffffffffffffff821115611029576110286112cf565b5b602082029050602081019050919050565b600067ffffffffffffffff821115611055576110546112cf565b5b61105e8261131c565b9050602081019050919050565b600081519050919050565b600082825260208201905092915050565b600081905092915050565b600061109d8261112f565b91506110a88361112f565b9250828210156110bb576110ba611213565b5b828203905092915050565b60006110d18261110f565b9050919050565b60008115159050919050565b6000819050919050565b60008190506110fc82611330565b919050565b600061ffff82169050919050565b600073ffffffffffffffffffffffffffffffffffffffff82169050919050565b6000819050919050565b600063ffffffff82169050919050565b600067ffffffffffffffff82169050919050565b6000611168826110ee565b9050919050565b82818337600083830152505050565b60005b8381101561119c578082015181840152602081019050611181565b838111156111ab576000848401525b50505050565b6111ba8261131c565b810181811067ffffffffffffffff821117156111d9576111d86112cf565b5b80604052505050565b60006111ed8261112f565b91506111f88361112f565b92508261120857611207611242565b5b828206905092915050565b7f4e487b7100000000000000000000000000000000000000000000000000000000600052601160045260246000fd5b7f4e487b7100000000000000000000000000000000000000000000000000000000600052601260045260246000fd5b7f4e487b7100000000000000000000000000000000000000000000000000000000600052602160045260246000fd5b7f4e487b7100000000000000000000000000000000000000000000000000000000600052603260045260246000fd5b7f4e487b7100000000000000000000000000000000000000000000000000000000600052604160045260246000fd5b600080fd5b600080fd5b600080fd5b600080fd5b600080fd5b600080fd5b6000601f19601f8301169050919050565b50565b6002811061134157611340611271565b5b50565b61134d8161112f565b811461135857600080fd5b5056fea2646970667358221220a7684f548e9ee41bb7d2c8f9f74fc02f1dee98e403b0738b8a99ad6fd051db6264736f6c63430008070033",
  "linkReferences": {},
  "deployedLinkReferences": {}
}